:100000000C9462000C948A000C948A000C948A0070
:100010000C948A000C948A000C948A000C948A0038
:100020000C948A000C948A000C948A000C94F903B6
:100030000C948A000C948A000C948A000C948A0018
:100040000C9457030C948A000C94C7030C94A103DE
:100050000C948A000C948A000C948A000C948A00F8
:100060000C948A000C948A000000000023002600F3
:10007000290000000000240027002A0000000000E2
:10008000250028002B0004040404040404040202D4
:100090000202020203030303030301020408102007
:1000A0004080010204081020010204081020000012
:1000B0000008000201000003040700000000000027
:1000C0000000BA0411241FBECFEFD8E0DEBFCDBFC1
:1000D00011E0A0E0B1E0E6E7FEE002C005900D927D
:1000E000AE33B107D9F722E0AEE3B1E001C01D9213
:1000F000AE30B207E1F710E0C2E6D0E004C02197CD
:10010000FE010E942E07C136D107C9F70E941805CB
:100110000C9439070C940000CF92DF92EF92FF927B
:10012000DC01A03282E0B8070CF03EC0B7FD06C08B
:10013000A53BB1052CF0A4EBB0E002C0A0E0B0E01C
:1001400080910C0228E830E06901C81AD10887FDC7
:10015000D394CC0CDD1CCC0CDD1C0D2C000CEE085B
:10016000FF0880910D0228E532E0281B310987FD48
:100170003395220F331F220F331FA901330F660B54
:10018000770B9A01AB012C193D094E095F090E94BA
:10019000E90624EB30E040E050E00E94BF06C20ECA
:1001A000D31EE41EF51ED60190910B029C3098F5EB
:1001B00080910C0248E850E0481B510987FD539597
:1001C000440F551F440F551FA417B5078CF080919D
:1001D0000D0228E532E0281B310987FD3395220FF7
:1001E000331F220F331FAD012A173B070CF4A9015F
:1001F00042505109440F551F2FB7F894892F90E0B2
:10020000FC01EE0FFF1F8E0F9F1FFC01EA51FE4FF6
:10021000528341832FBFFF90EF90DF90CF900895DE
:10022000833081F028F4813099F08230A1F0089574
:100230008730A9F08830B9F08430D1F48091800003
:100240008F7D03C0809180008F7780938000089518
:1002500084B58F7702C084B58F7D84BD0895809169
:10026000B0008F7703C08091B0008F7D8093B00085
:1002700008951F93CF93DF93282F30E0F901E255C3
:10028000FF4F8491F901E656FF4FD491F901EA57E7
:10029000FF4FC491CC23C1F0162F81110E94100191
:1002A000EC2FF0E0EE0FFF1FE458FF4FA591B49143
:1002B0009FB7F894111104C08C91D095D82302C037
:1002C000EC91DE2BDC939FBFDF91CF911F910895BE
:1002D000CF93DF9390E0FC01E656FF4F2491FC01A1
:1002E000EA57FF4F8491882361F190E0880F991FAE
:1002F000FC01EE58FF4FC591D491FC01E458FF4F2B
:10030000A591B491611109C09FB7F8948881209597
:1003100082238883EC912E230BC0623061F49FB757
:10032000F8948881322F309583238883EC912E2B8B
:100330002C939FBF06C08FB7F894E8812E2B28839B
:100340008FBFDF91CF9108953FB7F8948091450119
:1003500090914601A0914701B091480126B5A89B14
:1003600005C02F3F19F00196A11DB11D3FBFBA2F47
:10037000A92F982F8827820F911DA11DB11DBC01A7
:10038000CD0142E0660F771F881F991F4A95D1F76C
:1003900008958F929F92AF92BF92CF92DF92EF9289
:1003A000FF926B017C010E94A4014B015C01C1140E
:1003B000D104E104F104F1F00E94A401DC01CB01BD
:1003C00088199909AA09BB09883E9340A105B1057E
:1003D00070F321E0C21AD108E108F10888EE880E16
:1003E00083E0981EA11CB11CC114D104E104F104E6
:1003F00019F7DDCFFF90EF90DF90CF90BF90AF90D7
:100400009F908F900895CF92DF92EF92FF920F937B
:100410001F93CF93DF936C017A018B01C0E0D0E092
:10042000CE15DF0581F0D8016D918D01D601ED91DA
:10043000FC910190F081E02DC6010995892B11F006
:100440002196EECF7E01C701DF91CF911F910F91D1
:10045000FF90EF90DF90CF900895089580E090E0B6
:100460000895FC01538D448D252F30E0842F90E0BA
:10047000821B930B541710F0CF960895019708959F
:10048000FC01918D828D981761F0828DDF01A80F9C
:10049000B11D5D968C91928D9F5F9F73928F90E0BE
:1004A00008958FEF9FEF0895FC01918D828D98172D
:1004B00031F0828DE80FF11D858D90E008958FEF6A
:1004C0009FEF0895FC01918D228D892F90E0805C33
:1004D0009F4F821B91098F739927089589E491E0BA
:1004E0000E94620221E0892B09F420E0822F089506
:1004F000FC01848DDF01A80FB11DA35ABF4F2C91C1
:10050000848D90E001968F739927848FA689B7898F
:100510002C93A089B1898C91837080648C93938D86
:10052000848D981306C00288F389E02D80818F7D29
:1005300080830895EF92FF920F931F93CF93DF93E1
:10054000EC0181E0888F9B8D8C8D981305C0E88924
:10055000F989808185FD26C0F62E0B8D10E00F5F96
:100560001F4F0F731127E02E8C8DE8120CC00FB6B1
:1005700007FCFACFE889F989808185FFF5CFCE01A4
:100580000E947802F1CF8B8DFE01E80FF11DE35A36
:10059000FF4FF0829FB7F8940B8FEA89FB89808127
:1005A00080620AC09FB7F894EE89FF896083E8896A
:1005B000F98980818370806480839FBF81E090E0AF
:1005C000DF91CF911F910F91FF90EF900895CF93FE
:1005D000DF93EC01888D8823C9F0EA89FB8980814B
:1005E00085FD05C0A889B9898C9186FD0FC00FB61D
:1005F00007FCF5CF808185FFF2CFA889B9898C915E
:1006000085FFEDCFCE010E947802E7CFDF91CF9139
:10061000089580E090E0892B29F00E946E028111FC
:100620000C940000089589E390E00E948C0064EF30
:1006300071E080E090E00C94C90161E08DE00E94DF
:10064000390161E083E00E94390164EF71E080E0EC
:1006500090E00E94C90160E08DE00E94390160E0F5
:1006600083E00C943901CF93DF93009779F0FC017C
:1006700001900020E9F73197AF01481B590BBC01ED
:1006800089E491E00E940302EC0102C0C0E0D0E0E6
:1006900042E050E062E171E089E491E00E940302EF
:1006A0008C0F9D1FDF91CF9108950E9434071F92F8
:1006B0000F920FB60F9211242F933F938F939F9316
:1006C000AF93BF938091410190914201A09143016A
:1006D000B09144013091400123E0230F2D3720F4E5
:1006E0000196A11DB11D05C026E8230F0296A11D8C
:1006F000B11D209340018093410190934201A0934A
:100700004301B09344018091450190914601A0912D
:100710004701B09148010196A11DB11D809345018B
:1007200090934601A0934701B0934801BF91AF91C8
:100730009F918F913F912F910F900FBE0F901F901F
:1007400018951F920F920FB60F9211242F933F937B
:100750004F935F936F937F938F939F93AF93BF93C9
:10076000EF93FF9389E491E00E947802FF91EF916B
:10077000BF91AF919F918F917F916F915F914F91B9
:100780003F912F910F900FBE0F901F9018951F92C1
:100790000F920FB60F9211242F938F939F93EF9385
:1007A000FF93E0915901F0915A018081E0915F013E
:1007B000F091600182FD12C09081809162018F5F93
:1007C0008F7320916301821751F0E0916201F0E094
:1007D000E75BFE4F958F8093620101C08081FF919E
:1007E000EF919F918F912F910F900FBE0F901F90BF
:1007F00018951F920F920FB60F9211242F933F93CB
:100800004F935F936F937F938F939F93AF93BF9318
:10081000EF93FF9380913E0187FF05C01092850002
:10082000109284001BC020913E01022E000C330B5D
:1008300080910A0290E02817390784F480913E01E4
:10084000082E000C990BFC01EE0FFF1F8E0F9F1F4F
:10085000FC01EA51FE4F808186FD15C080913E016A
:100860008F5F80933E0120913E01022E000C330BDE
:1008700080910A0290E028173907C4F480913E0164
:100880008C3064F113C080913E01082E000C990B4E
:10089000FC01EE0FFF1F8E0F9F1FFC01EA51FE4F60
:1008A000808160E08F730E943901D8CF80918400ED
:1008B00090918500049680349C4918F480E49CE96A
:1008C00005C08091840090918500049690938900E2
:1008D000809388008FEF80933E013BC0209184007D
:1008E0003091850080913E01082E000C990BFC018F
:1008F000EE0FFF1F8E0F9F1FFC01EA51FE4F8181FB
:100900009281820F931F9093890080938800809139
:100910003E01082E000C990BFC01EE0FFF1F8E0FFD
:100920009F1FFC01EA51FE4F808186FF12C080911B
:100930003E01082E000C990BFC01EE0FFF1F8E0FDD
:100940009F1FFC01EA51FE4F808161E08F730E947E
:100950003901FF91EF91BF91AF919F918F917F915D
:100960006F915F914F913F912F910F900FBE0F901C
:100970001F90189510924C0110924B0188EE93E055
:10098000A0E0B0E080934D0190934E01A0934F0101
:10099000B093500184E091E090934A018093490123
:1009A00085EC90E0909356018093550184EC90E0A3
:1009B000909358018093570180EC90E090935A01F6
:1009C0008093590181EC90E090935C0180935B01EE
:1009D00082EC90E090935E0180935D0186EC90E064
:1009E0009093600180935F01109262011092630105
:1009F000109264011092650180910A028C30A0F47B
:100A000091E0980F90930A0280930B0290E0FC0112
:100A1000EE0FFF1F8E0F9F1FFC01EA51FE4F88EB68
:100A20009BE09283818308958FEF80930B0208955A
:100A3000789484B5826084BD84B5816084BD85B5B9
:100A4000826085BD85B5816085BD80916E008160C5
:100A500080936E001092810080918100826080936B
:100A6000810080918100816080938100809180006D
:100A70008160809380008091B10084608093B10098
:100A80008091B00081608093B00080917A00846092
:100A900080937A0080917A00826080937A008091BE
:100AA0007A00816080937A0080917A0080688093D8
:100AB0007A001092C10060E08DE00E94680161E060
:100AC0008DE00E94680161E08AE00E94680161E0B7
:100AD00083E00E94680161E084E00E94680161E0B7
:100AE00087E00E94680160E08DE00E94390160E0CB
:100AF00083E00E94390160E084E00E94390160E0F7
:100B000087E00E94390180910B028C3008F053C0BD
:100B100061E08AE00E94680180910B02E82FF0E01A
:100B20009F01220F331FE20FF31FEA51FE4F908106
:100B3000907C9A6090839EE890930C0294E6909348
:100B40000D026CE00E9422079CE0899FB0011124F5
:100B500040E050E09B01240F351FF901EE0FFF1F0D
:100B60002E0F3F1FF901EA51FE4F908196FD16C0EE
:100B70004F5F5F4F4C30510569F781110FC01092E4
:100B8000800082E0809381001092850010928400A2
:100B9000B19A80916F00826080936F00E0910B02A8
:100BA000F0E0CF01880F991FE80FF91FEA51FE4FBF
:100BB0008081806480830E941303E0915901F09149
:100BC0005A0182E08083E0915501F0915601108234
:100BD000E0915701F09158018FEC808310926101F0
:100BE000E0915D01F0915E0186E08083E0915B0120
:100BF000F0915C01808180618083E0915B01F091E4
:100C00005C01808188608083E0915B01F0915C01F0
:100C1000808180688083E0915B01F0915C0180813C
:100C20008F7D808361E083E00E94390168EE73E08C
:100C300080E090E00E94C90161E084E00E943901F7
:100C400068EE73E080E090E00E94C90161E087E017
:100C50000E94390168EE73E080E090E00E94C901D3
:100C600061E08DE00E94390168EC70E080E090E086
:100C70000E94C90160E08DE00E94390168EC70E0DB
:100C800080E090E00E94C90161E08DE00E9439019E
:100C900068EC70E080E090E00E94C90160E08DE0C7
:100CA0000E94390160E087E00E94390168EE73E03C
:100CB00080E090E00E94C90160E084E00E94390178
:100CC00068EE73E080E090E00E94C90160E083E09C
:100CD0000E94390168EE73E080E090E00E94C90153
:100CE000CBEBD0E007EA10E093E9E92E90E0F92E93
:100CF000CC24C394FE018491F801B490F701D49000
:100D0000DD2041F181110E941001ED2DF0E0EE0F88
:100D1000FF1FE859FF4FA591B4918C918B21D1F021
:100D200080913F0181111FC08FE090E00E948C00F4
:100D300064EF71E080E090E00E94C9010E941D0311
:100D400085E191E00E943303C0923F0161E084E0BD
:100D50000E94390168EC70E080E090E00E94C901D7
:100D60000E940903C7CF0E9413030E941D0388E25B
:100D700091E00E94330310923F0160E0E8CF052E1E
:100D800097FB1EF400940E94D60657FD07D00E94E0
:100D9000F10607FC03D04EF40C94D606509540950E
:100DA000309521953F4F4F4F5F4F08959095809517
:100DB000709561957F4F8F4F9F4F08950E94130745
:100DC000A59F900DB49F900DA49F800D911D11249F
:100DD0000895B7FF0C94DE060E94DE06821B930B7B
:100DE0000895A1E21A2EAA1BBB1BFD010DC0AA1F6C
:100DF000BB1FEE1FFF1FA217B307E407F50720F084
:100E0000A21BB30BE40BF50B661F771F881F991FFE
:100E10001A9469F760957095809590959B01AC0147
:100E2000BD01CF010895A29FB001B39FC001A39F50
:100E3000700D811D1124911DB29F700D811D112413
:100E4000911D0895991B79E004C0991F961708F029
:100E5000961B881F7A95C9F780950895EE0FFF1F9E
:100E60000590F491E02D099481E090E0F8940C94C1
:060E70003907F894FFCFE2
:100E7600000000009A0203023102E7026202400209
:100E860054020D0A004B7570706C756E67206765AD
:100E96006F6566666E6574004B7570706C756E670F
:0E0EA6002067657363686C6F7373656E000080
:00000001FF
